{
  "contractName": "Campaign",
  "abi": [
    {
      "inputs": [
        {
          "internalType": "uint256",
          "name": "_campaignId",
          "type": "uint256"
        },
        {
          "internalType": "uint256",
          "name": "_scientistId",
          "type": "uint256"
        },
        {
          "internalType": "address",
          "name": "_projectAddress",
          "type": "address"
        },
        {
          "internalType": "string",
          "name": "_title",
          "type": "string"
        },
        {
          "internalType": "uint256",
          "name": "_goalAmount",
          "type": "uint256"
        },
        {
          "internalType": "uint256",
          "name": "_startDate",
          "type": "uint256"
        },
        {
          "internalType": "uint256",
          "name": "_endDate",
          "type": "uint256"
        }
      ],
      "stateMutability": "nonpayable",
      "type": "constructor"
    },
    {
      "inputs": [],
      "name": "campaignId",
      "outputs": [
        {
          "internalType": "uint256",
          "name": "",
          "type": "uint256"
        }
      ],
      "stateMutability": "view",
      "type": "function"
    },
    {
      "inputs": [],
      "name": "currentTotalDonations",
      "outputs": [
        {
          "internalType": "uint256",
          "name": "",
          "type": "uint256"
        }
      ],
      "stateMutability": "view",
      "type": "function"
    },
    {
      "inputs": [
        {
          "internalType": "uint256",
          "name": "",
          "type": "uint256"
        },
        {
          "internalType": "address",
          "name": "",
          "type": "address"
        }
      ],
      "name": "donationsAmount",
      "outputs": [
        {
          "internalType": "uint256",
          "name": "",
          "type": "uint256"
        }
      ],
      "stateMutability": "view",
      "type": "function"
    },
    {
      "inputs": [],
      "name": "endDate",
      "outputs": [
        {
          "internalType": "uint256",
          "name": "",
          "type": "uint256"
        }
      ],
      "stateMutability": "view",
      "type": "function"
    },
    {
      "inputs": [],
      "name": "goalAmount",
      "outputs": [
        {
          "internalType": "uint256",
          "name": "",
          "type": "uint256"
        }
      ],
      "stateMutability": "view",
      "type": "function"
    },
    {
      "inputs": [],
      "name": "projectAddress",
      "outputs": [
        {
          "internalType": "address",
          "name": "",
          "type": "address"
        }
      ],
      "stateMutability": "view",
      "type": "function"
    },
    {
      "inputs": [],
      "name": "scientistId",
      "outputs": [
        {
          "internalType": "uint256",
          "name": "",
          "type": "uint256"
        }
      ],
      "stateMutability": "view",
      "type": "function"
    },
    {
      "inputs": [],
      "name": "startDate",
      "outputs": [
        {
          "internalType": "uint256",
          "name": "",
          "type": "uint256"
        }
      ],
      "stateMutability": "view",
      "type": "function"
    },
    {
      "inputs": [],
      "name": "title",
      "outputs": [
        {
          "internalType": "string",
          "name": "",
          "type": "string"
        }
      ],
      "stateMutability": "view",
      "type": "function"
    },
    {
      "inputs": [
        {
          "internalType": "uint256",
          "name": "_supporterId",
          "type": "uint256"
        }
      ],
      "name": "donate",
      "outputs": [],
      "stateMutability": "payable",
      "type": "function"
    },
    {
      "inputs": [],
      "name": "releaseFund",
      "outputs": [],
      "stateMutability": "nonpayable",
      "type": "function"
    },
    {
      "inputs": [
        {
          "internalType": "uint256",
          "name": "_supporterId",
          "type": "uint256"
        }
      ],
      "name": "refund",
      "outputs": [],
      "stateMutability": "nonpayable",
      "type": "function"
    }
  ],
  "bytecode": "0x60806040523480156200001157600080fd5b5060405162000fb538038062000fb58339818101604052810190620000379190620003ae565b866000819055508560018190555084600260006101000a81548173ffffffffffffffffffffffffffffffffffffffff021916908373ffffffffffffffffffffffffffffffffffffffff16021790555083600390805190602001906200009e929190620000c1565b5082600481905550816005819055508060068190555050505050505050620004e4565b828054620000cf90620004af565b90600052602060002090601f016020900481019282620000f357600085556200013f565b82601f106200010e57805160ff19168380011785556200013f565b828001600101855582156200013f579182015b828111156200013e57825182559160200191906001019062000121565b5b5090506200014e919062000152565b5090565b5b808211156200016d57600081600090555060010162000153565b5090565b6000604051905090565b600080fd5b600080fd5b6000819050919050565b6200019a8162000185565b8114620001a657600080fd5b50565b600081519050620001ba816200018f565b92915050565b600073ffffffffffffffffffffffffffffffffffffffff82169050919050565b6000620001ed82620001c0565b9050919050565b620001ff81620001e0565b81146200020b57600080fd5b50565b6000815190506200021f81620001f4565b92915050565b600080fd5b600080fd5b6000601f19601f8301169050919050565b7f4e487b7100000000000000000000000000000000000000000000000000000000600052604160045260246000fd5b6200027a826200022f565b810181811067ffffffffffffffff821117156200029c576200029b62000240565b5b80604052505050565b6000620002b162000171565b9050620002bf82826200026f565b919050565b600067ffffffffffffffff821115620002e257620002e162000240565b5b620002ed826200022f565b9050602081019050919050565b60005b838110156200031a578082015181840152602081019050620002fd565b838111156200032a576000848401525b50505050565b6000620003476200034184620002c4565b620002a5565b9050828152602081018484840111156200036657620003656200022a565b5b62000373848285620002fa565b509392505050565b600082601f83011262000393576200039262000225565b5b8151620003a584826020860162000330565b91505092915050565b600080600080600080600060e0888a031215620003d057620003cf6200017b565b5b6000620003e08a828b01620001a9565b9750506020620003f38a828b01620001a9565b9650506040620004068a828b016200020e565b955050606088015167ffffffffffffffff8111156200042a576200042962000180565b5b620004388a828b016200037b565b94505060806200044b8a828b01620001a9565b93505060a06200045e8a828b01620001a9565b92505060c0620004718a828b01620001a9565b91505092959891949750929550565b7f4e487b7100000000000000000000000000000000000000000000000000000000600052602260045260246000fd5b60006002820490506001821680620004c857607f821691505b602082108103620004de57620004dd62000480565b5b50919050565b610ac180620004f46000396000f3fe6080604052600436106100a75760003560e01c8063a2ff553911610064578063a2ff5539146101ac578063aa41e159146101c3578063acf78d17146101ee578063c24a0f8b1461022b578063f14faf6f14610256578063fc27972114610272576100a7565b80630b97bc86146100ac5780632636b945146100d7578063278ecde1146101025780633cf96af11461012b5780634a79d50c146101565780638ed5b0fc14610181575b600080fd5b3480156100b857600080fd5b506100c161029d565b6040516100ce9190610666565b60405180910390f35b3480156100e357600080fd5b506100ec6102a3565b6040516100f99190610666565b60405180910390f35b34801561010e57600080fd5b50610129600480360381019061012491906106b2565b6102a9565b005b34801561013757600080fd5b506101406103e4565b60405161014d9190610720565b60405180910390f35b34801561016257600080fd5b5061016b61040a565b60405161017891906107d4565b60405180910390f35b34801561018d57600080fd5b50610196610498565b6040516101a39190610666565b60405180910390f35b3480156101b857600080fd5b506101c161049e565b005b3480156101cf57600080fd5b506101d8610509565b6040516101e59190610666565b60405180910390f35b3480156101fa57600080fd5b5061021560048036038101906102109190610822565b61050f565b6040516102229190610666565b60405180910390f35b34801561023757600080fd5b50610240610534565b60405161024d9190610666565b60405180910390f35b610270600480360381019061026b91906106b2565b61053a565b005b34801561027e57600080fd5b50610287610647565b6040516102949190610666565b60405180910390f35b60055481565b60045481565b6004544711156102ee576040517f08c379a00000000000000000000000000000000000000000000000000000000081526004016102e5906108ae565b60405180910390fd5b60006008600083815260200190815260200160002060003373ffffffffffffffffffffffffffffffffffffffff1673ffffffffffffffffffffffffffffffffffffffff16815260200190815260200160002054905060006008600084815260200190815260200160002060003373ffffffffffffffffffffffffffffffffffffffff1673ffffffffffffffffffffffffffffffffffffffff168152602001908152602001600020819055503373ffffffffffffffffffffffffffffffffffffffff166108fc829081150290604051600060405180830381858888f193505050501580156103df573d6000803e3d6000fd5b505050565b600260009054906101000a900473ffffffffffffffffffffffffffffffffffffffff1681565b60038054610417906108fd565b80601f0160208091040260200160405190810160405280929190818152602001828054610443906108fd565b80156104905780601f1061046557610100808354040283529160200191610490565b820191906000526020600020905b81548152906001019060200180831161047357829003601f168201915b505050505081565b60005481565b600260009054906101000a900473ffffffffffffffffffffffffffffffffffffffff1673ffffffffffffffffffffffffffffffffffffffff166108fc479081150290604051600060405180830381858888f19350505050158015610506573d6000803e3d6000fd5b50565b60075481565b6008602052816000526040600020602052806000526040600020600091509150505481565b60065481565b60055442101561057f576040517f08c379a00000000000000000000000000000000000000000000000000000000081526004016105769061097a565b60405180910390fd5b6006544211156105c4576040517f08c379a00000000000000000000000000000000000000000000000000000000081526004016105bb906109e6565b60405180910390fd5b346008600083815260200190815260200160002060003373ffffffffffffffffffffffffffffffffffffffff1673ffffffffffffffffffffffffffffffffffffffff16815260200190815260200160002060008282546106249190610a35565b92505081905550346007600082825461063d9190610a35565b9250508190555050565b60015481565b6000819050919050565b6106608161064d565b82525050565b600060208201905061067b6000830184610657565b92915050565b600080fd5b61068f8161064d565b811461069a57600080fd5b50565b6000813590506106ac81610686565b92915050565b6000602082840312156106c8576106c7610681565b5b60006106d68482850161069d565b91505092915050565b600073ffffffffffffffffffffffffffffffffffffffff82169050919050565b600061070a826106df565b9050919050565b61071a816106ff565b82525050565b60006020820190506107356000830184610711565b92915050565b600081519050919050565b600082825260208201905092915050565b60005b8381101561077557808201518184015260208101905061075a565b83811115610784576000848401525b50505050565b6000601f19601f8301169050919050565b60006107a68261073b565b6107b08185610746565b93506107c0818560208601610757565b6107c98161078a565b840191505092915050565b600060208201905081810360008301526107ee818461079b565b905092915050565b6107ff816106ff565b811461080a57600080fd5b50565b60008135905061081c816107f6565b92915050565b6000806040838503121561083957610838610681565b5b60006108478582860161069d565b92505060206108588582860161080d565b9150509250929050565b7f7468652063616d706169676e20776173207375636365737366756c0000000000600082015250565b6000610898601b83610746565b91506108a382610862565b602082019050919050565b600060208201905081810360008301526108c78161088b565b9050919050565b7f4e487b7100000000000000000000000000000000000000000000000000000000600052602260045260246000fd5b6000600282049050600182168061091557607f821691505b602082108103610928576109276108ce565b5b50919050565b7f6e6f742073746172746564000000000000000000000000000000000000000000600082015250565b6000610964600b83610746565b915061096f8261092e565b602082019050919050565b6000602082019050818103600083015261099381610957565b9050919050565b7f656e646564000000000000000000000000000000000000000000000000000000600082015250565b60006109d0600583610746565b91506109db8261099a565b602082019050919050565b600060208201905081810360008301526109ff816109c3565b9050919050565b7f4e487b7100000000000000000000000000000000000000000000000000000000600052601160045260246000fd5b6000610a408261064d565b9150610a4b8361064d565b9250827fffffffffffffffffffffffffffffffffffffffffffffffffffffffffffffffff03821115610a8057610a7f610a06565b5b82820190509291505056fea2646970667358221220379a192858977aa607c2fae92af5f7a13dd808093bbcba63e5feb45e78f8e2cc64736f6c634300080d0033",
  "immutableReferences": {},
  "source": "// SPDX-License-Identifier: MIT\npragma solidity ^0.8.12; \n// contract CampaignFactory{\n//     address[] public deployedCampaigns;\n//     function createCampaign(uint _campaignId, uint _scientistId, address _projectAddress, string memory _title, uint _goalAmount, uint256 _startDate, uint256 _endDate) public {\n//         address campaignAddress = new Campaign(uint _campaignId, uint _scientistId, address _projectAddress, string memory _title, uint _goalAmount, uint256 _startDate, uint256 _endDate); //creates and deploys a new contract\n//         deployedCampaigns.push(campaignAddress);\n//     }\n//     function getDeployedCampaigns() public view returns (address[] memory){\n//         return deployedCampaigns;\n//     }\n// }\ncontract Campaign {\n    enum State {AWAITING_DONATIONS, CAMPAIGN_DATE_PASSED, AWAITING_FUND_WITHDRAWAL, CAMPAIGN_COMPLETE}\n    uint public campaignId;\n    uint public scientistId;\n    address public projectAddress;\n    string public title;\n    uint public goalAmount; //make sure to have the data from the front end be in wei\n    uint256 public startDate;\n    uint256 public endDate;\n    uint public currentTotalDonations;\n    mapping(uint => mapping(address => uint)) public donationsAmount;\n    // Donation[] public donationsList;\n    // struct Donation {\n    //     // address supporterAddress;\n    //     uint supporterId;\n    //     uint amount;\n    // }\n    constructor(uint _campaignId, uint _scientistId, address _projectAddress, string memory _title, uint _goalAmount, uint256 _startDate, uint256 _endDate) {\n        campaignId = _campaignId;\n        scientistId = _scientistId;\n        projectAddress = _projectAddress;\n        title = _title;\n        goalAmount = _goalAmount;\n        startDate = _startDate;\n        endDate = _endDate;\n    }\n    function donate(uint _supporterId) public payable {\n        require(block.timestamp >= startDate, 'not started');\n        require(block.timestamp <= endDate, 'ended');\n        // Donation memory newDonation = Donation(\n        //     {\n        //         supporterId: _supporterId,\n        //         donationAmount: msg.value\n        //     }\n        // );\n        donationsAmount[_supporterId][msg.sender] += msg.value;\n        currentTotalDonations += msg.value;\n    }\n    //funds are allocated according to goal met...check if goal was met, if so, creatorAddress.transfer(address(this).balance), if not, look it up\n    function releaseFund() public {\n        ///require( state whatever )\n        // require(projectAddress == msg.sender, 'not creator');\n        // require(block.timestamp > endDate, 'not ended');\n        // require(address (this).balance >= goalAmount, 'sorry, your campaign did not meet its goal');\n        payable(projectAddress).transfer(address (this).balance);\n    }\n    function refund(uint _supporterId) external {\n        // require(block.timestamp > endDate, 'not ended');\n        require(address (this).balance <= goalAmount, 'the campaign was successful');\n        uint balance = donationsAmount[_supporterId][msg.sender];\n        donationsAmount[_supporterId][msg.sender] = 0;\n        payable (msg.sender).transfer(balance);\n    }\n    //scientist can cancel campaign\n}\n//look up how to transfer eth on a certain date in solidity\n//maybe use new Date Javascript function to trigger from the front end a function in smart contract that allocates the funds",
  "sourcePath": "/Users/gracehwoang/FullstackAcademy/SeniorPhase/2201-gh-blockchain/contracts/Campaign.sol",
  "compiler": {
    "name": "solc",
    "version": "0.8.13+commit.abaa5c0e.Emscripten.clang"
  },
  "schemaVersion": "3.4.3",
  "updatedAt": "2022-04-03T01:09:27.179Z",
  "devdoc": {
    "kind": "dev",
    "methods": {},
    "version": 1
  },
  "userdoc": {
    "kind": "user",
    "methods": {},
    "version": 1
  }
}