{
  "contractName": "Escrow",
  "abi": [
    {
      "inputs": [
        {
          "internalType": "address",
          "name": "_project",
          "type": "address"
        },
        {
          "internalType": "uint256",
          "name": "_goalAmount",
          "type": "uint256"
        }
      ],
      "stateMutability": "nonpayable",
      "type": "constructor"
    },
    {
      "anonymous": false,
      "inputs": [
        {
          "indexed": false,
          "internalType": "address",
          "name": "supporter",
          "type": "address"
        },
        {
          "indexed": false,
          "internalType": "uint256",
          "name": "donationAmount",
          "type": "uint256"
        }
      ],
      "name": "supporterDonated",
      "type": "event"
    },
    {
      "inputs": [],
      "name": "currentTotalDonation",
      "outputs": [
        {
          "internalType": "uint256",
          "name": "",
          "type": "uint256"
        }
      ],
      "stateMutability": "view",
      "type": "function",
      "constant": true
    },
    {
      "inputs": [
        {
          "internalType": "uint256",
          "name": "",
          "type": "uint256"
        }
      ],
      "name": "donationList",
      "outputs": [
        {
          "internalType": "address",
          "name": "supporter",
          "type": "address"
        },
        {
          "internalType": "uint256",
          "name": "donationAmount",
          "type": "uint256"
        }
      ],
      "stateMutability": "view",
      "type": "function",
      "constant": true
    },
    {
      "inputs": [],
      "name": "goalAmount",
      "outputs": [
        {
          "internalType": "uint256",
          "name": "",
          "type": "uint256"
        }
      ],
      "stateMutability": "view",
      "type": "function",
      "constant": true
    },
    {
      "inputs": [],
      "name": "project",
      "outputs": [
        {
          "internalType": "address",
          "name": "",
          "type": "address"
        }
      ],
      "stateMutability": "view",
      "type": "function",
      "constant": true
    },
    {
      "inputs": [
        {
          "internalType": "address",
          "name": "_supporter",
          "type": "address"
        }
      ],
      "name": "receivingFunds",
      "outputs": [],
      "stateMutability": "payable",
      "type": "function",
      "payable": true
    },
    {
      "inputs": [],
      "name": "releaseFund",
      "outputs": [],
      "stateMutability": "nonpayable",
      "type": "function"
    }
  ],
  "bytecode": "0x608060405234801561001057600080fd5b506040516106a63803806106a683398181016040528101906100329190610119565b816000806101000a81548173ffffffffffffffffffffffffffffffffffffffff021916908373ffffffffffffffffffffffffffffffffffffffff160217905550806001819055505050610159565b600080fd5b600073ffffffffffffffffffffffffffffffffffffffff82169050919050565b60006100b082610085565b9050919050565b6100c0816100a5565b81146100cb57600080fd5b50565b6000815190506100dd816100b7565b92915050565b6000819050919050565b6100f6816100e3565b811461010157600080fd5b50565b600081519050610113816100ed565b92915050565b600080604083850312156101305761012f610080565b5b600061013e858286016100ce565b925050602061014f85828601610104565b9150509250929050565b61053e806101686000396000f3fe6080604052600436106100555760003560e01c80630238cbdc1461005a5780632636b945146100985780637501f21a146100c3578063a2ff5539146100ee578063b4fc758d14610105578063f60ca60d14610121575b600080fd5b34801561006657600080fd5b50610081600480360381019061007c919061034e565b61014c565b60405161008f9291906103cb565b60405180910390f35b3480156100a457600080fd5b506100ad6101a0565b6040516100ba91906103f4565b60405180910390f35b3480156100cf57600080fd5b506100d86101a6565b6040516100e591906103f4565b60405180910390f35b3480156100fa57600080fd5b506101036101ac565b005b61011f600480360381019061011a919061043b565b610224565b005b34801561012d57600080fd5b506101366102ef565b6040516101439190610468565b60405180910390f35b6003818154811061015c57600080fd5b90600052602060002090600202016000915090508060000160009054906101000a900473ffffffffffffffffffffffffffffffffffffffff16908060010154905082565b60015481565b60025481565b6001544710156101bb57600080fd5b60008054906101000a900473ffffffffffffffffffffffffffffffffffffffff1673ffffffffffffffffffffffffffffffffffffffff166108fc479081150290604051600060405180830381858888f19350505050158015610221573d6000803e3d6000fd5b50565b600060405180604001604052808373ffffffffffffffffffffffffffffffffffffffff168152602001348152509050600381908060018154018082558091505060019003906000526020600020906002020160009091909190915060008201518160000160006101000a81548173ffffffffffffffffffffffffffffffffffffffff021916908373ffffffffffffffffffffffffffffffffffffffff16021790555060208201518160010155505034600260008282546102e491906104b2565b925050819055505050565b60008054906101000a900473ffffffffffffffffffffffffffffffffffffffff1681565b600080fd5b6000819050919050565b61032b81610318565b811461033657600080fd5b50565b60008135905061034881610322565b92915050565b60006020828403121561036457610363610313565b5b600061037284828501610339565b91505092915050565b600073ffffffffffffffffffffffffffffffffffffffff82169050919050565b60006103a68261037b565b9050919050565b6103b68161039b565b82525050565b6103c581610318565b82525050565b60006040820190506103e060008301856103ad565b6103ed60208301846103bc565b9392505050565b600060208201905061040960008301846103bc565b92915050565b6104188161039b565b811461042357600080fd5b50565b6000813590506104358161040f565b92915050565b60006020828403121561045157610450610313565b5b600061045f84828501610426565b91505092915050565b600060208201905061047d60008301846103ad565b92915050565b7f4e487b7100000000000000000000000000000000000000000000000000000000600052601160045260246000fd5b60006104bd82610318565b91506104c883610318565b9250827fffffffffffffffffffffffffffffffffffffffffffffffffffffffffffffffff038211156104fd576104fc610483565b5b82820190509291505056fea26469706673582212203cad6e73e906320f95b963857a3192a08dfd3530ba8fb685113eb8ec262af20664736f6c634300080d0033",
  "immutableReferences": {},
  "source": "// SPDX-License-Identifier: MIT\npragma solidity ^0.8.12;\ncontract Escrow {\n    // address public supporter;\n    address public project;\n    uint public goalAmount;\n    uint public currentTotalDonation;\n    Donation[] public donationList;\n\n    // mapping(uint => Donation) public donations;\n    \n    struct Donation {\n        address supporter;\n        uint donationAmount;\n    }\n\n    event supporterDonated (\n        address supporter,\n        uint donationAmount\n    );\n\n    constructor(address _project, uint _goalAmount) {\n        project = _project;\n        goalAmount = _goalAmount;\n    }\n    \n    function receivingFunds(address _supporter) public payable {\n        // emit supporterDonated(_supporter, msg.value);\n        Donation memory newDonation = Donation(\n            {\n                supporter: _supporter,\n                donationAmount: msg.value\n            }\n        );\n        donationList.push(newDonation);\n        currentTotalDonation += msg.value;\n    }\n \n    function releaseFund() public {\n        require(address (this).balance >= goalAmount);\n        payable(project).transfer(address (this).balance);\n    }\n}",
  "sourcePath": "/Users/brookewilder/Documents/Senior-Phase/desci_funding/contracts/Escrow.sol",
  "compiler": {
    "name": "solc",
    "version": "0.8.13+commit.abaa5c0e.Emscripten.clang"
  },
  "schemaVersion": "3.4.6",
  "updatedAt": "2022-03-21T15:52:09.413Z",
  "networkType": "ethereum",
  "devdoc": {
    "kind": "dev",
    "methods": {},
    "version": 1
  },
  "userdoc": {
    "kind": "user",
    "methods": {},
    "version": 1
  }
}